:100000000C94C7000C9400000C9400000C940000A9
:100010000C9400000C9400000C9400000C94000060
:100020000C9400000C9400000C9400000C94000050
:100030000C9400000C9400000C9400000C94000040
:100040000C9400000C9400000C9400000C94000030
:100050000C9400000C9400000C9400000C94000020
:100060000C9400000C9400000C9400000C94000010
:100070000C9400000C9400000C9400000C94000000
:100080000C9400000C9400000C9400000C940000F0
:100090000C9400000C9400000C9400000C940000E0
:1000A0000C9400000C9400000C9400000C940000D0
:1000B0000C9400000C9400000C9400000C940000C0
:1000C0000C9400000C9400000C9400000C940000B0
:1000D0000C9400000C9400000C9400000C940000A0
:0400E0000C9400007C
:10018E00BFEFBDBFB1E2BEBF0E942801BFEFB1B944
:10019E00BFEFB7B9B0E0B093080200910802083083
:1001AE0074F510E022E000910802E02FF0E007FD68
:1001BE00FFEFE10FF21F008108B910914B02009181
:1001CE000802212F200F30E017FD3FEFB0E007FDB2
:1001DE00BFEF3B1F09E012E0F901E00FF11F0081B4
:1001EE0002B912E00BE40A95F1F71A95E1F7000057
:1001FE000000009108020F5F00930802CECF00911D
:10020E00490210914A020F5F1F4F0093490210934B
:10021E004A02103009F4083C91F4B0E0B093490260
:10022E00B0934A0200914B0210E007FD1FEF085FEA
:10023E001F4F40E450E075DF8C0100934B02AACFB4
:02024E00FFCFE0
:0A01840005900D920197E1F7089530
:10013000C801BA0197FB092E07260AD077FD04D023
:100140000CD006D000201AF4709561957F4F089569
:10015000F6F7909581959F4F0895AA1BBB1B51E11F
:1001600007C0AA1FBB1FA617B70710F0A61BB70B27
:10017000881F991F5A95A9F780959095BC01CD01CC
:040180000895089541
:10025000A0E0B2E0E4EEF0E08CE490E00E94C200A6
:020260000895FF
:0800E400FEFDFBF7EFDFBF7F1B
:0100EC000013
:1000ED000000FE083008FE0000007C82827C0000CB
:1000FD000000FE101010FE000000F814121214F88B
:10010D000000FE083008FE0000FE083008FE00006A
:10011D000000FE92929292000000FE8282827C008C
:02012D000000D0
:01012F0000CF
:00000001FF
